01000000000000ALABAMA                                                                                            01          485897916             093016
01100200200000BALDWIN COUNTY                                                  Baldwin                            0100399003   20370916             093016
01100500500000BLOUNT COUNTY                                                   Blount                             0100999009    5767316             093016
01100800800000CALHOUN COUNTY                                                  Calhoun                            0101599015   11562016             093016
01101001000000CHEROKEE COUNTY                                                 Cherokee                           0101999019    2585916             093016
01101501500000CLEBURNE COUNTY                                                 Cleburne                           0102999029    1501816             093016
01101701700000COLBERT COUNTY                                                  Colbert                            0103399033    5435416             093016
01101801800000CONECUH COUNTY                                                  Conecuh                            0103599035    1267216             093016
01102202200000CULLMAN COUNTY                                                  Cullman                            0104399043    8200516             093016
01102302300000DALE COUNTY                                                     Dale                               0104599045    4956516             093016
01102402400000DALLAS COUNTY                                                   Dallas                             0104799047    4113116             093016
01102502500000DE KALB COUNTY                                                  DeKalb                             0104999049    7113016             093016
01102802800000ETOWAH COUNTY                                                   Etowah                             0105599055   10305716             093016
01103003000000FRANKLIN COUNTY                                                 Franklin                           0105999059    3169616             093016
01103503500000HOUSTON COUNTY                                                  Houston                            0106999069   10417316             093016
01103703700000JEFFERSON COUNTY                                                Jefferson                          0107399073   66036716             093016
01103903900000LAUDERDALE COUNTY                                               Lauderdale                         0107799077    9259616             093016
01104004000000LAWRENCE COUNTY                                                 Lawrence                           0107999079    3311516             093016
01104204200000LIMESTONE COUNTY                                                Limestone                          0108399083    9166316             093016
01104504500000MADISON COUNTY                                                  Madison                            0108999089   35308916             093016
01104904900000MOBILE COUNTY                                                   Mobile                             0109799097   41539516             093016
01105005000000MONROE COUNTY                                                   Monroe                             0109999099    2167316             093016
01105105100000MONTGOMERY COUNTY                                               Montgomery                         0110199101   22651916             093016
01105205200000MORGAN COUNTY                                                   Morgan                             0110399103   11956516             093016
01105305300000PERRY COUNTY                                                    Perry                              0110599105     965216             093016
01105405400000PICKENS COUNTY                                                  Pickens                            0110799107    2086416             093016
01105805800000ST CLAIR COUNTY                                                 St Clair                           0111599115    8707416             093016
01105905900000SHELBY COUNTY                                                   Shelby                             0111799117   20871316             093016
01106106100000TALLADEGA COUNTY                                                Talladega                          0112199121    8086216             093016
01106206200000TALLAPOOSA COUNTY                                               Tallapoosa                         0112399123    4084416             093016
01106306300000TUSCALOOSA COUNTY                                               Tuscaloosa                         0112599125   20397616             093016
01200100300000PRATTVILLE CITY                                                 Autauga                            0100162328    3542016             093016
01200200200000DAPHNE CITY                                                     Baldwin                            0100319648    2489616             093016
01200200400000FAIRHOPE CITY                                                   Baldwin                            0100325240    1873016             093016
01200200500000FOLEY CITY                                                      Baldwin                            0100326992    1721816             093016
01200240100000ORANGE BEACH CITY                                               Baldwin                            0100357144     585016             123116
01200300400000EUFAULA CITY                                                    Barbour                            0100524568    1259616             093016
01200800100000ANNISTON CITY                                                   Calhoun                            0101501852    2234716             093016
01200800400000JACKSONVILLE CITY                                               Calhoun                            0101538272    1222216             093016
01200800600000OXFORD CITY                                                     Calhoun                            0101557576    2124916             093016
01200910100000CUSSETA TOWN                                                    Chambers                           0101719216      12416                 16
01201100100000CLANTON CITY                                                    Chilton                            0102115136     884416             093016
01201100200000JEMISON CITY                                                    Chilton                            0102138608     261916             093016
01201500300000HEFLIN CITY                                                     Cleburne                           0102933976     349916             093016
01201600200000ENTERPRISE CITY                                                 Coffee                             0103124184    2797816             093016
01201700400000MUSCLE SHOALS CITY                                              Colbert                            0103353016    1370616             093016
01201700500000SHEFFIELD CITY                                                  Colbert                            0103369648     910816             093016
01202000100000ANDALUSIA CITY                                                  Covington                          0103901708     906316             103116
01202000500000OPP CITY                                                        Covington                          0103957120     665816             093016
01202200100000CULLMAN CITY                                                    Cullman                            0104318976    1535016             093016
01202300400000OZARK CITY                                                      Dale                               0104557648    1471916             093016
01202400200000SELMA CITY                                                      Dallas                             0104769120    1951916             093016
01202600200000TALLASSEE CITY                                                  Elmore                             0105174688     477816             093016
01202800200000ATTALLA CITY                                                    Etowah                             0105503028     589916             093016
01202800300000GADSDEN CITY                                                    Etowah                             0105528696    3608416             093016
01203000400000RUSSELLVILLE CITY                                               Franklin                           0105967056     984716             093016
01203100300000GENEVA CITY                                                     Geneva                             0106129464     446016             093016
01203500400000DOTHAN CITY                                                     Houston                            0106921184    6856716             093016
01203600500000SCOTTSBORO CITY                                                 Jackson                            0107168736    1472216             093016
01203700200000BESSEMER CITY                                                   Jefferson                          0107305980    2673016             093016
01203700300000BIRMINGHAM CITY                                                 Jefferson                          0107307000   21246116             063016
01203701000000GARDENDALE CITY                                                 Jefferson                          0107329056    1371116             093016
01203701200000HOMEWOOD CITY                                                   Jefferson                          0107335800    2570816             093016
01203701900000MOUNTAIN BROOK CITY                                             Jefferson                          0107351696    2069116             093016
01203702500000TRUSSVILLE CITY                                                 Jefferson                          0107376944    2102316             093016
01203702600000VESTAVIA HILLS CITY                                             Jefferson                          0107378552    3417416             093016
01203780100000HOOVER CITY                                                     Jefferson                          0107335896    8484816             093016
01203900100000FLORENCE CITY                                                   Lauderdale                         0107726896    4002616             093016
01204100100000AUBURN CITY                                                     Lee                                0108103076    6205916             093016
01204100200000OPELIKA CITY                                                    Lee                                0108157048    2952716             093016
01204200200000ATHENS CITY                                                     Limestone                          0108302956    2496616             093016
01204370100000BENTON TOWN                                                     Lowndes                            0108505692       4616             093016
01204400200000TUSKEGEE CITY                                                   Macon                              0108777304     881716             093016
01204500100000HUNTSVILLE CITY                                                 Madison                            0108937000   19058216             093016
01204500200000MADISON CITY                                                    Madison                            0108945784    4696216             093016
01204800100000ALBERTVILLE CITY                                                Marshall                           0109500988    2146216             093016
01204800500000GUNTERSVILLE CITY                                               Marshall                           0109532416     838516             093016
01204900400000MOBILE CITY                                                     Mobile                             0109750000   19428816             093016
01204910100000SEMMES CITY                                                     Mobile                             0109769240     388616             093016
01204960100000CREOLA CITY                                                     Mobile                             0109718304     195516             093016
01205100100000MONTGOMERY CITY                                                 Montgomery                         0110151000   20060216             093016
01205200200000DECATUR CITY                                                    Morgan                             0110320104    5543716             093016
01205200400000HARTSELLE CITY                                                  Morgan                             0110333448    1449316             093016
01205400100000ALICEVILLE CITY                                                 Pickens                            0110701228     238116             093016
01205500400000TROY CITY                                                       Pike                               0110976920    1885316             093016
01205700200000PHENIX CITY                                                     Russell                            0111359472    3757016             093016
01205800300000PELL CITY CITY                                                  St Clair                           0111558896    1364616             093016
01205900200000CALERA CITY                                                     Shelby                             0111711416    1321316             093016
01205970100000PELHAM CITY                                                     Shelby                             0111758848    2288516             093016
01206100600000TALLADEGA CITY                                                  Talladega                          0112174592    1570916             093016
01206200100000ALEXANDER CITY CITY                                             Tallapoosa                         0112301132    1471816             093016
01206300100000NORTHPORT CITY                                                  Tuscaloosa                         0112555200    2477216             093016
01206300200000TUSCALOOSA CITY                                                 Tuscaloosa                         0112577256    9833216             093016
01206400100000CARBON HILL CITY                                                Walker                             0112712016     197516             093016
01206400400000JASPER CITY                                                     Walker                             0112738416    1407116             093016
01400290200000ORANGE BEACH WATER SEWER AND FIRE PROTECTION AUTHORITY          Baldwin                            01003                         91  103116
01400290800000BALDWIN COUNTY EASTERN SHORE HEALTH CARE AUTHORITY              Baldwin                            01003                         40  033116
01400340100000SPECTRACARE HEALTH SYSTEMS                                      Barbour                            01005                         32  093016
01400540400000BLOUNT COUNTY WATER AUTHORITY                                   Blount                             01009                         91  093016
01400760100000GEORGIANA CITY HOUSING AUTHORITY                                Butler                             01013                         50  033116
01400800100000ANNISTON HOUSING AUTHORITY                                      Calhoun                            01015                         50  033116
01400810200000MCCLELLAN DEVELOPMENT AUTHORITY                                 Calhoun                            01015                         99      16
01400840100000ANNISTON WATER WORKS AND SEWER BOARD                            Calhoun                            01015                         98  033116
01400840200000NORTHEAST ALABAMA REGIONAL MEDICAL CENTER                       Calhoun                            01015                         40  063016
01401300100000CLARKE MOBILE COUNTIES GAS DISTRICT                             Clarke                             01025                         93  093016
01401400100000CLAY COUNTY HEALTHCARE AUTHORITY                                Clay                               01027                         40  093016
01401537000000CLEBURNE COUNTY WATER AUTHORITY                                 Cleburne                           01029                         91      16
01401612300000ELBA HEALTH CARE AUTHORITY                                      Coffee                             01031                         40      16
01401700100000NORTHWEST ALABAMA HEALTH CARE AUTHORITY (COLBERT COUNTY)        Colbert                            01033                         40  093016
01401700200000SHEFFIELD HOUSING AUTHORITY                                     Colbert                            01033                         50  033116
01401740100000NORTH ALABAMA GAS DISTRICT                                      Colbert                            01033                         93  093016
01401870100000SOUTH ALABAMA GAS DISTRICT                                      Conecuh                            01035                         93  093016
01402000200000SOUTHEAST ALABAMA GAS DISTRICT                                  Covington                          01039                         93  093016
01402060100000SOUTH ALABAMA REGIONAL AIRPORT AUTHORITY                        Covington                          01039                         01  093016
01402250200000CULLMAN JEFFERSON COUNTY GAS DISTRICT                           Cullman                            01043                         93  043016
01402280100000CULLMAN COUNTY HEALTH CARE AUTHORITY                            Cullman                            01043                         40  063016
01402300100000DALE COUNTY HOSPITAL ASSOCIATION                                Dale                               01045                         40  093016
01402338000000DALE COUNTY WATER AUTHORITY                                     Dale                               01045                         91      16
01402510100000DEKALB JACKSON WATER SUPPLY DISTRICT                            DeKalb                             01049                         91      16
01402560100000NORTHEAST ALABAMA WATER SEWER AND FIRE PROTECTION DISTRICT      DeKalb                             01049                         98  063016
01402690100000CENTRAL ELMORE COUNTY WATER AND SEWER AUTHORITY                 Elmore                             01051                         91  063016
01402700100000ESCAMBIA COUNTY HEALTH CARE AUTHORITY                           Escambia                           01053                         40  093016
01402860400000HIGHLAND WATER AUTHORITY                                        Etowah                             01055                         91  123116
01403050100000FRANKLIN COUNTY SOIL AND WATER CONSERVATION DISTRICT            Franklin                           01059                         88  093016
01403100200000GENEVA COUNTY HEALTH CARE AUTHORITY                             Geneva                             01061                         40  093016
01403110100000GENEVA COUNTY PUBLIC HEALTH CARE COOPERATIVE DISTRICT           Geneva                             01061                         32      16
01403270300000GREENE COUNTY HOSPITAL BOARD                                    Greene                             01063                         40  093016
01403370200000GREENSBORO MUNICIPAL AIRPORT AUTHORITY                          Hale                               01065                         01  123116
01403500400000HOUSTON COUNTY HEALTH CARE AUTHORITY                            Houston                            01069                         40  093016
01403510100000HOUSTON COUNTY COOPERATIVE DISTRICT                             Houston                            01069                         99  093016
01403600100000JACKSON COUNTY HEALTH CARE AUTHORITY                            Jackson                            01071                         40  093016
01403620100000CUMBERLAND MOUNTAIN WATER AND FIRE PROTECTION AUTHORITY         Jackson                            01071                         91  123116
01403700100000BIRMINGHAM HOUSING AUTHORITY                                    Jefferson                          01073                         50  063016
01403700200000FAIRFIELD HOUSING AUTHORITY                                     Jefferson                          01073                         50  033116
01403700300000JEFFERSON COUNTY RURAL HOUSING AUTHORITY                        Jefferson                          01073                         50  123116
01403720100000BIRMINGHAM AIRPORT AUTHORITY                                    Jefferson                          01073                         01  063016
01403740100000JEFFERSON-BLOUNT-ST CLAIR MENTAL HEALTH AUTHORITY               Jefferson                          01073                         32  093016
01403750100000BESSEMER HOUSING AUTHORITY                                      Jefferson                          01073                         50  063016
01403761100000WARRIOR RIVER WATER AUTHORITY                                   Jefferson                          01073                         91  093016
01403761200000BIRMINGHAM JEFFERSON CIVIC CENTER AUTHORITY                     Jefferson                          01073                         61  083116
01403790100000BIRMINGHAM-JEFFERSON COUNTY TRANSIT AUTHORITY                   Jefferson                          01073                         94  093016
01403910100000FLORENCE-LAUDERDALE TOURISM BOARD                               Lauderdale                         01077                         89  123116
01403990400000CHISHOLM HEIGHTS WATER AND FIRE PROTECTION AUTHORITY            Lauderdale                         01077                         91  093016
01404030100000NORTH CENTRAL ALABAMA MENTAL HEALTH BOARD                       Lawrence                           01079                         32  093016
01404100200000EAST ALABAMA HEALTH CARE AUTHORITY                              Lee                                01081                         40  093016
01404110100000WEST PACE COOPERATIVE DISTRICT                                  Lee                                01081                         99  093016
01404138200000SMITHS WATER AND SEWER AUTHORITY                                Lee                                01081                         91  063016
01404200200000HH HEALTH SYSTEMS ATHENS-LIMESTONE, LLC                         Limestone                          01083                         40  063016
01404237000000LIMESTONE COUNTY WATER AND SEWER AUTHORITY                      Limestone                          01083                         91      16
01404500100000HUNTSVILLE CITY HOUSING AUTHORITY                               Madison                            01089                         50  033116
01404540400000HUNTSVILLE HEALTH CARE AUTHORITY                                Madison                            01089                         40  063016
01404560200000HARVEST-MONROVIA WATER AUTHORITY                                Madison                            01089                         91  123116
01404570100000HUNTSVILLE-MADISON COUNTY AIRPORT AUTHORITY                     Madison                            01089                         01  063016
01404612700000TOMBIGBEE HEALTH CARE AUTHORITY                                 Marengo                            01091                         40  093016
01404618400000MARENGO COUNTY EMERGENCY COMMUNICATIONS DISTRICT                Marengo                            01091                         89  093016
01404700600000NORTHWEST ALABAMA GAS DISTRICT                                  Marion                             01093                         93  063016
01404800200000MARSHALL COUNTY GAS DISTRICT                                    Marshall                           01095                         93  083116
01404800300000MARSHALL COUNTY HEALTH CARE AUTHORITY                           Marshall                           01095                         40  093016
01404900100000MOBILE HOUSING BOARD                                            Mobile                             01097                         50  123116
01404900500000MOBILE COUNTY HOSPITAL BOARD                                    Mobile                             01097                         40      16
01404940400000ALTAPOINTE HEALTH CARE SYSTEMS INC                              Mobile                             01097                         32  093016
01404970400000PRICHARD CITY HOUSING AUTHORITY                                 Mobile                             01097                         50  063016
01405070100000MONROE COUNTY HOSPITAL BOARD                                    Monroe                             01099                         40  093016
01405100200000MONTGOMERY CITY HOUSING AUTHORITY                               Montgomery                         01101                         50  033116
01405114500000HEALTH CARE AUTHORITY OF BAPTIST HEALTH                         Montgomery                         01101                         40      16
01405120300000SELLERS STATION WATER AND FIRE PROTECTION AUTHORITY             Montgomery                         01101                         91  123116
01405120500000PINTLALA WATER AND FIRE PROTECTION AUTHORITY                    Montgomery                         01101                         91  093016
01405140100000MONTGOMERY AREA MENTAL HEALTH AUTHORITY                         Montgomery                         01101                         32  093016
01405140200000ALABAMA MUNICIPAL ELECTRIC AUTHORITY                            Montgomery                         01101                         92  093016
01405218300000MORGAN COUNTY INDUSTRIAL PARK AND ECONOMIC DEV COOPERATIVE DIST Morgan                             01103                         89  093016
01405220100000HEALTH CARE AUTHORITY MORGAN COUNTY-CITY OF DECATUR             Morgan                             01103                         40  063016
01405260200000WEST MORGAN-EAST LAWRENCE WATER AND SEWER AUTHORITY             Morgan                             01103                         91  093016
01405280300000NORTHEAST MORGAN COUNTY WATER AUTHORITY                         Morgan                             01103                         91  093016
01405480200000PICKENS COUNTY HOSPITAL ASSOCIATION                             Pickens                            01107                         40  093016
01405590100000SOUTH CENTRAL ALABAMA REGIONAL HOUSING AUTHORITY                Pike                               01109                         50  033116
01405660300000RANDOLPH COUNTY WATER SEWER AND FIRE PROTECTION AUTHORITY       Randolph                           01111                         99  093016
01406010100000YORK CITY HEALTH CARE AUTHORITY                                 Sumter                             01119                         40      16
01406240100000EAST ALABAMA MENTAL HEALTH CENTER                               Tallapoosa                         01123                         32  093016
01406300100000TUSCALOOSA HOUSING AUTHORITY                                    Tuscaloosa                         01125                         50  033116
01406390100000DCH HEALTH CARE AUTHORITY                                       Tuscaloosa                         01125                         40  093016
01406711000000UPPER BEAR CREEK WATER AUTHORITY                                Winston                            01133                         91      16
01500100100000AUTAUGA COUNTY SCHOOL DISTRICT                                  Autauga                            01001                   960917  03093016
01500200100000BALDWIN COUNTY SCHOOL DISTRICT                                  Baldwin                            01003                  3093117  03093016
01500300100000BARBOUR COUNTY SCHOOL DISTRICT                                  Barbour                            01005                    91217  03093016
01500300200000EUFAULA CITY SCHOOL DISTRICT                                    Barbour                            01005                   284217  03093016
01500400100000BIBB COUNTY SCHOOL DISTRICT                                     Bibb                               01007                   332217  03093016
01500500100000BLOUNT COUNTY SCHOOL DISTRICT                                   Blount                             01009                   787017  03093016
01500500200000ONEONTA CITY SCHOOL DISTRICT                                    Blount                             01009                   147717  03093016
01500600100000BULLOCK COUNTY SCHOOL DISTRICT                                  Bullock                            01011                   150517  03093016
01500700100000BUTLER COUNTY SCHOOL DISTRICT                                   Butler                             01013                   313517  03093016
01500800200000ANNISTON CITY SCHOOL DISTRICT                                   Calhoun                            01015                   209917  03093016
01500800300000CALHOUN COUNTY SCHOOL DISTRICT                                  Calhoun                            01015                   905417  03093016
01500800400000JACKSONVILLE CITY SCHOOL DISTRICT                               Calhoun                            01015                   154417  03093016
01500800500000PIEDMONT CITY SCHOOL DISTRICT                                   Calhoun                            01015                   124717  03093016
01500880100000OXFORD CITY SCHOOL DISTRICT                                     Calhoun                            01015                   417117  03093016
01500900100000CHAMBERS COUNTY SCHOOL DISTRICT                                 Chambers                           01017                   372917  03063016
01500900200000LANETT CITY SCHOOL DISTRICT                                     Chambers                           01017                    86317  03093016
01501000100000CHEROKEE COUNTY SCHOOL DISTRICT                                 Cherokee                           01019                   404217  03093016
01501100100000CHILTON COUNTY SCHOOL DISTRICT                                  Chilton                            01021                   774317  03093016
01501200100000CHOCTAW COUNTY SCHOOL DISTRICT                                  Choctaw                            01023                   149517  03093016
01501300100000CLARKE COUNTY SCHOOL DISTRICT                                   Clarke                             01025                   271717  03093016
01501370100000THOMASVILLE CITY SCHOOL DISTRICT                                Clarke                             01025                   133917  03093016
01501400100000CLAY COUNTY SCHOOL DISTRICT                                     Clay                               01027                   197817  03093016
01501500100000CLEBURNE COUNTY SCHOOL DISTRICT                                 Cleburne                           01029                   263117  03093016
01501600100000COFFEE COUNTY SCHOOL DISTRICT                                   Coffee                             01031                   208117  03093016
01501600200000ELBA CITY SCHOOL DISTRICT                                       Coffee                             01031                    61517  03093016
01501600300000ENTERPRISE CITY SCHOOL DISTRICT                                 Coffee                             01031                   682317  03093016
01501700100000COLBERT COUNTY SCHOOL DISTRICT                                  Colbert                            01033                   263817  03093016
01501700200000SHEFFIELD CITY SCHOOL DISTRICT                                  Colbert                            01033                   105917  03093016
01501700300000TUSCUMBIA CITY SCHOOL DISTRICT                                  Colbert                            01033                   152717  03093016
01501750100000MUSCLE SHOALS CITY SCHOOL DISTRICT                              Colbert                            01033                   290717  03093016
01501800100000CONECUH COUNTY SCHOOL DISTRICT                                  Conecuh                            01035                   152517  03093016
01501900100000COOSA COUNTY SCHOOL DISTRICT                                    Coosa                              01037                   100317  03093016
01502000100000ANDALUSIA CITY SCHOOL DISTRICT                                  Covington                          01039                   174517  03093016
01502000200000COVINGTON COUNTY SCHOOL DISTRICT                                Covington                          01039                   317817  03093016
01502000400000OPP CITY SCHOOL DISTRICT                                        Covington                          01039                   135717  03093016
01502100100000CRENSHAW COUNTY SCHOOL DISTRICT                                 Crenshaw                           01041                   223917  03093016
01502200100000CULLMAN CITY SCHOOL DISTRICT                                    Cullman                            01043                   313017  03093016
01502200200000CULLMAN COUNTY SCHOOL DISTRICT                                  Cullman                            01043                   957317  03093016
01502300100000DALE COUNTY SCHOOL DISTRICT                                     Dale                               01045                   307917  03093016
01502300200000OZARK CITY SCHOOL DISTRICT                                      Dale                               01045                   213117  03093016
01502370100000DALEVILLE CITY SCHOOL DISTRICT                                  Dale                               01045                   107817  03093016
01502400100000DALLAS COUNTY SCHOOL DISTRICT                                   Dallas                             01047                   324317  03093016
01502400200000SELMA CITY SCHOOL DISTRICT                                      Dallas                             01047                   379817  03093016
01502500100000DE KALB COUNTY SCHOOL DISTRICT                                  DeKalb                             01049                   901517  03093016
01502500200000FORT PAYNE CITY SCHOOL DISTRICT                                 DeKalb                             01049                   320517  03093016
01502600100000ELMORE COUNTY SCHOOL DISTRICT                                   Elmore                             01051                  1123217  03093016
01502600200000TALLASSEE CITY SCHOOL DISTRICT                                  Elmore                             01051                   185417  03093016
01502700200000BREWTON CITY SCHOOL DISTRICT                                    Escambia                           01053                   115817  03093016
01502700300000ESCAMBIA COUNTY SCHOOL DISTRICT                                 Escambia                           01053                   447917  03093016
01502800100000ATTALLA CITY SCHOOL DISTRICT                                    Etowah                             01055                   163817  03093016
01502800200000ETOWAH COUNTY BOARD OF EDUCATION                                Etowah                             01055                   880217  03093016
01502800300000GADSDEN CITY SCHOOL DISTRICT                                    Etowah                             01055                   522617  03093016
01502900100000FAYETTE COUNTY SCHOOL DISTRICT                                  Fayette                            01057                   240317  03093016
01503000100000FRANKLIN COUNTY SCHOOL DISTRICT                                 Franklin                           01059                   338817  03093016
01503000200000RUSSELLVILLE CITY SCHOOLS                                       Franklin                           01059                   274317  03093016
01503100100000GENEVA COUNTY SCHOOL DISTRICT                                   Geneva                             01061                   274217  03093016
01503180100000GENEVA CITY SCHOOL DISTRICT                                     Geneva                             01061                   127517  03093016
01503200100000GREENE COUNTY SCHOOL DISTRICT                                   Greene                             01063                   117317  03093016
01503300100000HALE COUNTY SCHOOL DISTRICT                                     Hale                               01065                   268717  03093016
01503400100000HENRY COUNTY SCHOOL DISTRICT                                    Henry                              01067                   254017  03093016
01503500100000DOTHAN CITY SCHOOL DISTRICT                                     Houston                            01069                   933617  03093016
01503500200000HOUSTON COUNTY SCHOOL DISTRICT                                  Houston                            01069                   634317  03093016
01503600100000JACKSON COUNTY SCHOOL DISTRICT                                  Jackson                            01071                   552817  03093016
01503600200000SCOTTSBORO CITY SCHOOL DISTRICT                                 Jackson                            01071                   253617  03093016
01503700100000BESSEMER CITY SCHOOL DISTRICT                                   Jefferson                          01073                   374017  03093016
01503700200000BIRMINGHAM CITY SCHOOL DISTRICT                                 Jefferson                          01073                  2469317  03093016
01503700300000FAIRFIELD CITY SCHOOL DISTRICT                                  Jefferson                          01073                   178217  03093016
01503700400000JEFFERSON COUNTY BOARD OF EDUCATION                             Jefferson                          01073                  3609217  03093016
01503700500000TARRANT CITY SCHOOL DISTRICT                                    Jefferson                          01073                   117417  03093016
01503710100000LEEDS CITY SCHOOL DISTRICT                                      Jefferson                          01073                   190517  03    16
01503710200000TRUSSVILLE CITY SCHOOL DISTRICT                                 Jefferson                          01073                   445617  03    16
01503740100000HOOVER CITY SCHOOL DISTRICT                                     Jefferson                          01073                  1391017  03093016
01503750100000MOUNTAIN BROOK SCHOOLS                                          Jefferson                          01073                   437117  03093016
01503780100000HOMEWOOD CITY SCHOOL DISTRICT                                   Jefferson                          01073                   406917  03093016
01503780200000MIDFIELD CITY SCHOOL DISTRICT                                   Jefferson                          01073                   113417  03093016
01503780400000VESTAVIA HILLS CITY SCHOOL DISTRICT                             Jefferson                          01073                   701517  03093016
01503800100000LAMAR COUNTY SCHOOL DISTRICT                                    Lamar                              01075                   235117  03093016
01503900100000FLORENCE CITY SCHOOL DISTRICT                                   Lauderdale                         01077                   451917  03093016
01503900200000LAUDERDALE COUNTY SCHOOL DISTRICT                               Lauderdale                         01077                   844517  03093016
01504000100000LAWRENCE COUNTY SCHOOL DISTRICT                                 Lawrence                           01079                   484117  03093016
01504100100000LEE COUNTY SCHOOL DISTRICT                                      Lee                                01081                   977117  03093016
01504100200000OPELIKA CITY SCHOOLS                                            Lee                                01081                   424017  03093016
01504170100000AUBURN CITY SCHOOL DISTRICT                                     Lee                                01081                   831017  03093016
01504200100000ATHENS CITY SCHOOL DISTRICT                                     Limestone                          01083                   393317  03093016
01504200200000LIMESTONE COUNTY SCHOOL DISTRICT                                Limestone                          01083                   878917  03093016
01504300100000LOWNDES COUNTY SCHOOL DISTRICT                                  Lowndes                            01085                   156217  03093016
01504400100000MACON COUNTY SCHOOL DISTRICT                                    Macon                              01087                   213417  03093016
01504500100000HUNTSVILLE CITY SCHOOL DISTRICT                                 Madison                            01089                  2382717  03093016
01504500200000MADISON COUNTY SCHOOL DISTRICT                                  Madison                            01089                  1945217  03093016
01504530100000MADISON CITY SCHOOL DISTRICT                                    Madison                            01089                  1001117  03093016
01504600100000DEMOPOLIS CITY SCHOOL DISTRICT                                  Marengo                            01091                   228917  03093016
01504600200000MARENGO COUNTY SCHOOL DISTRICT                                  Marengo                            01091                   109017  03093016
01504670100000LINDEN CITY SCHOOL DISTRICT                                     Marengo                            01091                    51817  03093016
01504700100000MARION COUNTY SCHOOL DISTRICT                                   Marion                             01093                   340517  03093016
01504700200000WINFIELD CITY SCHOOL DISTRICT                                   Marion                             01093                   126617  03093016
01504800100000MARSHALL COUNTY SCHOOL DISTRICT                                 Marshall                           01095                   563517  03093016
01504810100000BOAZ CITY SCHOOL DISTRICT                                       Marshall                           01095                   231017  03    16
01504840100000ALBERTVILLE CITY SCHOOL DISTRICT                                Marshall                           01095                   521417  03093016
01504880100000ARAB CITY SCHOOL DISTRICT                                       Marshall                           01095                   254017  03093016
01504880200000GUNTERSVILLE CITY SCHOOL DISTRICT                               Marshall                           01095                   199917  03093016
01504900100000MOBILE COUNTY SCHOOL DISTRICT                                   Mobile                             01097                  5758117  03093016
01504910100000SARALAND CITY SCHOOLS                                           Mobile                             01097                   295317  03    16
01504910200000CHICKASAW CITY SCHOOLS                                          Mobile                             01097                   103217  03    16
01504910300000SATSUMA CITY SCHOOL DISTRICT                                    Mobile                             01097                   130817  03    16
01505000100000MONROE COUNTY SCHOOL DISTRICT                                   Monroe                             01099                   360017  03093016
01505100100000MONTGOMERY COUNTY SCHOOL DISTRICT                               Montgomery                         01101                  3066717  03093016
01505100200000PIKE ROAD SCHOOL DISTRICT                                       Montgomery                         01101                   112517  03    16
01505200100000DECATUR CITY SCHOOL DISTRICT                                    Morgan                             01103                   869317  03093016
01505200200000MORGAN COUNTY SCHOOL DISTRICT                                   Morgan                             01103                   775717  03093016
01505290100000HARTSELLE CITY SCHOOL DISTRICT                                  Morgan                             01103                   306817  03093016
01505300100000PERRY COUNTY SCHOOL DISTRICT                                    Perry                              01105                   152517  03093016
01505400100000PICKENS COUNTY SCHOOL DISTRICT                                  Pickens                            01107                   263317  03093016
01505500100000PIKE COUNTY SCHOOL DISTRICT                                     Pike                               01109                   218917  03093016
01505500200000TROY CITY SCHOOL DISTRICT                                       Pike                               01109                   198117  03093016
01505600100000RANDOLPH COUNTY SCHOOL DISTRICT                                 Randolph                           01111                   222817  03093016
01505600200000ROANOKE CITY SCHOOL DISTRICT                                    Randolph                           01111                   154217  03093016
01505700100000PHENIX CITY SCHOOL DISTRICT                                     Russell                            01113                   704317  03093016
01505700200000RUSSELL COUNTY SCHOOL DISTRICT                                  Russell                            01113                   359817  03093016
01505800100000ST CLAIR COUNTY SCHOOL DISTRICT                                 St Clair                           01115                   905617  03093016
01505860100000PELL CITY SCHOOL DISTRICT                                       St Clair                           01115                   402317  03093016
01505900100000SHELBY COUNTY SCHOOL DISTRICT                                   Shelby                             01117                  2006417  03093016
01505900200000PELHAM CITY SCHOOLS BOARD OF EDUCATION                          Shelby                             01117                   303417  03    16
01505900300000ALABASTER CITY SCHOOL DISTRICT                                  Shelby                             01117                   610317  03    16
01506000100000SUMTER COUNTY SCHOOL DISTRICT                                   Sumter                             01119                   159317  03093016
01506100100000SYLACAUGA CITY SCHOOL DISTRICT                                  Talladega                          01121                   225617  03093016
01506100200000TALLADEGA CITY SCHOOL DISTRICT                                  Talladega                          01121                   205117  03093016
01506100300000TALLADEGA COUNTY SCHOOL DISTRICT                                Talladega                          01121                   777717  03093016
01506200100000TALLAPOOSA COUNTY SCHOOL DISTRICT                               Tallapoosa                         01123                   289417  03093016
01506200200000ALEXANDER CITY SCHOOL DISTRICT                                  Tallapoosa                         01123                   310217  03093016
01506300100000TUSCALOOSA CITY SCHOOL DISTRICT                                 Tuscaloosa                         01125                  1041817  03093016
01506300200000TUSCALOOSA COUNTY SCHOOL DISTRICT                               Tuscaloosa                         01125                  1835217  03093016
01506400200000JASPER CITY SCHOOL DISTRICT                                     Walker                             01127                   274617  03093016
01506400300000WALKER COUNTY SCHOOL DISTRICT                                   Walker                             01127                   782717  03093016
01506500100000WASHINGTON COUNTY SCHOOL DISTRICT                               Washington                         01129                   293617  03093016
01506600100000WILCOX COUNTY SCHOOL DISTRICT                                   Wilcox                             01131                   179517  03093016
01506700100000WINSTON COUNTY SCHOOL DISTRICT                                  Winston                            01133                   244917  03093016
01506780100000HALEYVILLE CITY SCHOOL DISTRICT                                 Winston                            01133                   171117  03093016
02000000000000ALASKA                                                                                             02           73843216             063016
02100400100000BRISTOL BAY BOROUGH                                             Bristol Bay Borough                0206099060      89216             063016
02100600200000FAIRBANKS NORTH STAR BOROUGH                                    Fairbanks North Star Borough       0209099090    9963116             063016
02100700300000HAINES BOROUGH                                                  Haines Borough                     0210099100     253416             063016
02100900400000KENAI PENINSULA BOROUGH                                         Kenai Peninsula Borough            0212299122    5805916             063016
02101000500000KETCHIKAN GATEWAY BOROUGH                                       Ketchikan-Gateway Borough          0213099130    1370916             063016
02101101100000NORTHWEST ARCTIC BOROUGH                                        Northwest Arctic Borough           0218899188     775216             063016
02101200600000KODIAK ISLAND BOROUGH                                           Kodiak Island Borough              0215099150    1388916             063016
02101300700000MATANUSKA-SUSITNA BOROUGH                                       Matanuska-Susitna Borough          0217099170   10109516             063016
02101500800000NORTH SLOPE BOROUGH                                             North Slope Borough                0218599185     968716             063016
02102202200000PETERSBURG BOROUGH                                              Petersburg Borough                 0219599195     328119             063016
02102402400000ALEUTIANS EAST BOROUGH                                          Aleutians East Borough             0201399013     334116             063016
02102502500000LAKE AND PENINSULA BOROUGH                                      Lake and Peninsula Borough         0216499164     156316             063016
02102602600000DENALI BOROUGH                                                  Denali Borough                     0206899068     191916             063016
02102702700000YAKUTAT BOROUGH                                                 Yakutat City and Borough           0228299282      61316             063016
02102802800000SKAGWAY BOROUGH                                                 Skagway                            0223099230     105716             063016
02200100200000SAINT PAUL CITY                                                 Aleutians West Census Area         0201666470      50616             123116
02200100400000UNALASKA CITY                                                   Aleutians West Census Area         0201680770     449116             063016
02200130100000ADAK CITY                                                       Aleutians West Census Area         0201600065      33216             063016
02200200100000ANCHORAGE MUNICIPALITY                                          Anchorage City and Borough         0202003000   29869516             123116
02200300600000BETHEL CITY                                                     Bethel Census Area                 0205006520     645016             063016
02200500300000DILLINGHAM CITY                                                 Dillingham Census Area             0207018950     240416             063016
02200500400000EKWOK CITY                                                      Dillingham Census Area             0207021810      11816             063016
02200600100000FAIRBANKS CITY                                                  Fairbanks North Star Borough       0209024230    3232516             123116
02200600200000NORTH POLE CITY                                                 Fairbanks North Star Borough       0209055910     218916             123116
02200800100000JUNEAU CITY AND BOROUGH                                         Juneau City and Borough            0211036400    3275616             063016
02200900100000HOMER CITY                                                      Kenai Peninsula Borough            0212233140     551516             123116
02200900300000KENAI CITY                                                      Kenai Peninsula Borough            0212238420     766116             063016
02200900400000SELDOVIA CITY                                                   Kenai Peninsula Borough            0212268340      27716             063016
02200900500000SEWARD CITY                                                     Kenai Peninsula Borough            0212268560     279016             123116
02200900600000SOLDOTNA CITY                                                   Kenai Peninsula Borough            0212271640     454416             063016
02201000100000KETCHIKAN CITY                                                  Ketchikan-Gateway Borough          0213038970     819716             123116
02201100700000KOTZEBUE CITY                                                   Northwest Arctic Borough           0218841830     327716             063016
02201200200000KODIAK CITY                                                     Kodiak Island Borough              0215040950     625316             063016
02201200300000LARSEN BAY CITY                                                 Kodiak Island Borough              0215043040       8816             063016
02201300200000PALMER CITY                                                     Matanuska-Susitna Borough          0217058660     678816             123116
02201300300000WASILLA CITY                                                    Matanuska-Susitna Borough          0217083080     928416             063016
02201400700000NOME CITY                                                       Nome Census Area                   0218054920     380616             063016
02201400800000SAINT MICHAEL CITY                                              Nome Census Area                   0218066360      41316             063016
02201401400000UNALAKLEET CITY                                                 Nome Census Area                   0218080660      70816             063016
02201500200000UTQIAGVIK CITY                                                  North Slope Borough                0218581920     438416             063016
02201600100000CRAIG CITY                                                      Prince of Wales-Hyder Census Area  0219817740     124816             063016
02201600400000KLAWOCK CITY                                                    Prince of Wales-Hyder Census Area  0219840400      76516             063016
02201610100000EDNA BAY CITY                                                   Prince of Wales-Hyder Census Area  0219820970       4416                 16
02201700100000SITKA CITY AND BOROUGH                                          Sitka City and Borough             0222070540     886316             063016
02201800700000GUSTAVUS CITY                                                   Hoonah-Angoon Census Area          0210530940      43416             063016
02202000100000CORDOVA CITY                                                    Valdez-Cordova Census Area         0226117410     219616             123116
02202000200000VALDEZ CITY                                                     Valdez-Cordova Census Area         0226182200     387016             123116
02202000300000WHITTIER CITY                                                   Valdez-Cordova Census Area         0226184510      21416             123116
02202100200000CHEVAK CITY                                                     Kusilvak Census Area               0215813230     101816             063016
02202100300000EMMONAK CITY                                                    Kusilvak Census Area               0215822910      84916             063016
02202100700000MOUNTAIN VILLAGE CITY                                           Kusilvak Census Area               0215851180      88316             063016
02202100800000PILOT STATION CITY                                              Kusilvak Census Area               0215860750      61716             123116
02202101000000SAINT MARYS CITY                                                Kusilvak Census Area               0215866140      55016             063016
02202300500000GALENA CITY                                                     Yukon-Kayukuk Census Area          0229027530      46716             063016
02202301000000KALTAG CITY                                                     Yukon-Kayukuk Census Area          0229037430      18916             063016
02202301300000NENANA CITY                                                     Yukon-Kayukuk Census Area          0229053050      37616             063016
02202400100000AKUTAN CITY                                                     Aleutians East Borough             0201301090     104016             063016
02203600100000WRANGELL CITY AND BOROUGH                                       Wrangell City and Borough          0227586380     238216             063016
02400240100000ALEUTIAN REGIONAL HOUSING AUTHORITY                             Anchorage City and Borough         02020                         50  123116
02400240200000COOK INLET REGIONAL HOUSING AUTHORITY                           Anchorage City and Borough         02020                         50  093016
02400240300000NORTH PACIFIC RIM REGIONAL HOUSING AUTHORITY                    Anchorage City and Borough         02020                         50  093016
02400300100000AVCP REGIONAL HOUSING AUTHORITY                                 Bethel Census Area                 02050                         50  093016
02400500100000BRISTOL BAY HOUSING AUTHORITY                                   Dillingham Census Area             02070                         50  123116
02400640100000INTERIOR REGIONAL HOUSING AUTHORITY                             Fairbanks North Star Borough       02090                         50  063016
02400800100000TLINGIT-HAIDA REGIONAL HOUSING AUTHORITY                        Juneau City and Borough            02110                         50  123116
02401010100000SOUTHEAST ALASKA POWER AGENCY                                   Ketchikan-Gateway Borough          02130                         92      16
02401100100000NORTHWEST INUPIAT HOUSING AUTHORITY                             Northwest Arctic Borough           02188                         50  123116
02401200100000KODIAK ISLAND HOUSING AUTHORITY                                 Kodiak Island Borough              02150                         50  093016
02401440100000BERING STRAITS REGIONAL HOUSING AUTHORITY                       Nome Census Area                   02180                         50  123116
02401540100000TAGIUGMIULLU NUNAMIULLU HOUSING AUTHORITY                       North Slope Borough                02185                         50  063016
02401600100000METLAKATLA HOUSING AUTHORITY                                    Prince of Wales-Hyder Census Area  02198                         50  033116
02401740100000BARANOF ISLAND HOUSING AUTHORITY                                Sitka City and Borough             02220                         50  093016
02402040100000COPPER RIVER BASIN REGIONAL HOUSING AUTHORITY                   Valdez-Cordova Census Area         02261                         50  093016
03000000000000ARIZONA                                                                                            04          682806516             063016
03100100100000APACHE COUNTY                                                   Apache                             0400199001    7147416             063016
03100200200000COCHISE COUNTY                                                  Cochise                            0400399003   12642716             063016
03100300300000COCONINO COUNTY                                                 Coconino                           0400599005   13909716             063016
03100400400000GILA COUNTY                                                     Gila                               0400799007    5315916             063016
03100500500000GRAHAM COUNTY                                                   Graham                             0400999009    3766616             063016
03100600600000GREENLEE COUNTY                                                 Greenlee                           0401199011     952916             063016
03100700700000MARICOPA COUNTY                                                 Maricopa                           0401399013  416794716             063016
03100800800000MOHAVE COUNTY                                                   Mohave                             0401599015   20473716             063016
03100900900000NAVAJO COUNTY                                                   Navajo                             0401799017   10827716             063016
03101001000000PIMA COUNTY                                                     Pima                               0401999019  101002516             063016
03101101100000PINAL COUNTY                                                    Pinal                              0402199021   40658416             063016
03101201200000SANTA CRUZ COUNTY                                               Santa Cruz                         0402399023    4646116             063016
03101301300000YAVAPAI COUNTY                                                  Yavapai                            0402599025   22225516             063016
03101401400000YUMA COUNTY                                                     Yuma                               0402799027   20427516             063016
03101501500000LA PAZ COUNTY                                                   La Paz                             0401299012    2015216             063016
03200200400000SIERRA VISTA CITY                                               Cochise                            0400366820    4335516             063016
03200300100000FLAGSTAFF CITY                                                  Coconino                           0400523620    7032016             063016
03200390100000PAGE CITY                                                       Coconino                           0400551810     749016             063016
03200400200000MIAMI TOWN                                                      Gila                               0400746350     178316             063016
03200490100000PAYSON TOWN                                                     Gila                               0400753700    1534516             063016
03200500200000SAFFORD CITY                                                    Graham                             0400962000     968316             063016
03200500300000THATCHER TOWN                                                   Graham                             0400973420     499216             063016
03200700100000AVONDALE CITY                                                   Maricopa                           0401304720    8068416             063016
03200700200000BUCKEYE TOWN                                                    Maricopa                           0401307940    6213816             063016
03200700300000CHANDLER CITY                                                   Maricopa                           0401312000   26082816             063016
03200700500000GILBERT TOWN                                                    Maricopa                           0401327400   24754216             063016
03200700600000GLENDALE CITY                                                   Maricopa                           0401327820   24012616             063016
03200700700000GOODYEAR CITY                                                   Maricopa                           0401328380    7900316             063016
03200700800000MESA CITY                                                       Maricopa                           0401346000   47182516             063016
03200700900000PEORIA CITY                                                     Maricopa                           0401354050   17123716             063016
03200701000000PHOENIX CITY                                                    Maricopa                           0401355000  156302516             063016
03200701100000SCOTTSDALE CITY                                                 Maricopa                           0401365000   23683916             063016
03200701200000TEMPE CITY                                                      Maricopa                           0401373000   17582616             063016
03200701400000WICKENBURG TOWN                                                 Maricopa                           0401382740     680616             063016
03200740100000CAREFREE TOWN                                                   Maricopa                           0401310180     361016             063016
03200740500000QUEEN CREEK TOWN                                                Maricopa                           0401358150    3461416             063016
03200750200000SURPRISE CITY                                                   Maricopa                           0401371510   12842216             063016
03200790100000GUADALUPE TOWN                                                  Maricopa                           0401330270     617716             063016
03200800100000KINGMAN CITY                                                    Mohave                             0401537620    2891216             063016
03200840100000BULLHEAD CITY CITY                                              Mohave                             0401508220    3944516             063016
03200860100000LAKE HAVASU CITY CITY                                           Mohave                             0401539370    5355316             063016
03200900200000SHOW LOW CITY                                                   Navajo                             0401766470    1086016             063016
03201000200000TUCSON CITY                                                     Pima                               0401977000   53164116             063016
03201020100000SAHUARITA TOWN                                                  Pima                               0401962140    2570716             063016
03201090100000ORO VALLEY TOWN                                                 Pima                               0401951600    4356516             053116
03201090200000MARANA TOWN                                                     Pima                               0401944270    4131516             063016
03201100100000CASA GRANDE CITY                                                Pinal                              0402110530    5146016             063016
03201100300000ELOY CITY                                                       Pinal                              0402122360    1705916             063016
03201100400000FLORENCE TOWN                                                   Pinal                              0402123760    3111016             063016
03201160100000APACHE JUNCTION CITY                                            Pinal                              0402102830    3807416             063016
03201200100000NOGALES CITY                                                    Santa Cruz                         0402349640    2025216             063016
03201300200000PRESCOTT CITY                                                   Yavapai                            0402557380    4189916             063016
03201350200000COTTONWOOD CITY                                                 Yavapai                            0402516410    1181816             063016
03201360100000PRESCOTT VALLEY TOWN                                            Yavapai                            0402557450    4219716             063016
03201400300000YUMA CITY                                                       Yuma                               0402785540    9413916             063016
03400360900000SEDONA FIRE DISTRICT                                            Coconino                           04005                         24  063016
03400460500000HOUSTON MESA FIRE DISTRICT                                      Gila                               04007                         24  063016
03400470100000NORTHERN GILA COUNTY SANITARY DISTRICT                          Gila                               04007                         80  063016
03400702200000ROOSEVELT IRRIGATION DISTRICT                                   Maricopa                           04013                         64  063016
03400702400000SALT RIVER PROJECT AGRICULTURAL IMPROVEMENT & POWER DISTRICT    Maricopa                           04013                         92  043016
03400710100000MARICOPA COUNTY SPECIAL HEALTH CARE DISTRICT                    Maricopa                           04013                         40  063016
03400710300000VALLEY METRO RAIL INC.                                          Maricopa                           04013                         94  063016
03400731100000PHOENIX-MESA GATEWAY AIRPORT AUTHORITY                          Maricopa                           04013                         01  063016
03400740200000ELECTRICAL DISTRICT 8                                           Maricopa                           04013                         92  063016
03400741300000REGIONAL PUBLIC TRANSPORTATION AUTHORITY                        Maricopa                           04013                         94  063016
03400760300000CENTRAL ARIZONA WATER CONSERVATION DISTRICT                     Maricopa                           04013                         99  123116
03400760700000TURNEY TRACT IRRIGATION WATER DELIVERY DISTRICT 15              Maricopa                           04013                         64  063016
03400770900000SAN TAN IRRIGATION DISTRICT                                     Maricopa                           04013                         64  063016
03400910100000TIMBER MESA FIRE AND MEDICAL DISTRICT                           Navajo                             04017                         24      16
03400980100000NAVAPACHE HOSPITAL DISTRICT                                     Navajo                             04017                         40  063016
03401000100000FLOWING WELLS IRRIGATION DISTRICT                               Pima                               04019                         91  063016
03401010100000PIMA COUNTY REGIONAL TRANSPORTATION AUTHORITY                   Pima                               04019                         99  063016
03401040100000NORTHWEST FIRE DISTRICT                                         Pima                               04019                         24  063016
03401061300000GREEN VALLEY FIRE DISTRICT                                      Pima                               04019                         24  063016
03401100200000PINAL COUNTY ELECTRICAL DISTRICT 2                              Pinal                              04021                         92  123116
03401100300000PINAL COUNTY ELECTRICAL DISTRICT 3                              Pinal                              04021                         92  123116
03401100400000PINAL COUNTY ELECTRICAL DISTRICT 4                              Pinal                              04021                         92  123116
03401170400000MARICOPA STANFIELD IRRIGATION AND DRAINAGE DISTRICT             Pinal                              04021                         64  123116
03401170500000NEW MAGMA IRRIGATION AND DRAINAGE DISTRICT                      Pinal                              04021                         64  123116
03401180100000CENTRAL ARIZONA IRRIGATION AND DRAINAGE DISTRICT                Pinal                              04021                         64  123116
03401190900000ARIZONA CITY SANITARY DISTRICT                                  Pinal                              04021                         80  063016
03401260300000TUBAC FIRE DISTRICT                                             Santa Cruz                         04023                         24  063016
03401361300000GROOM CREEK FIRE DISTRICT                                       Yavapai                            04025                         24  063016
03401370200000CENTRAL ARIZONA FIRE AND MEDICAL AUTHORITY                      Yavapai                            04025                         24      16
03401400300000WELLTON MOHAWK IRRIGATION DRAINAGE DISTRICT                     Yuma                               04027                         99  123116
03401400600000YUMA MESA IRRIGATION AND DRAINAGE DISTRICT                      Yuma                               04027                         64  123116
03401560100000PARKER FIRE DISTRICT                                            La Paz                             04012                         24  063016
03500100100000ALPINE SCHOOL DISTRICT 7                                        Apache                             04001                     7317  01063016
03500100300000CHINLE UNIFIED SCHOOL DISTRICT 24                               Apache                             04001                   349817  03063016
03500100400000CONCHO SCHOOL DISTRICT 6                                        Apache                             04001                    22717  01063016
03500100600000GANADO UNIFIED SCHOOL DISTRICT 20                               Apache                             04001                   143417  03063016
03500100800000MCNARY SCHOOL DISTRICT 23                                       Apache                             04001                    15517  01063016
03500101200000SANDERS UNIFIED SCHOOL DISTRICT 18                              Apache                             04001                    76117  03063016
03500101300000ST JOHNS UNIFIED SCHOOL DISTRICT 1                              Apache                             04001                    78317  03063016
03500101400000ROUND VALLEY UNIFIED SCHOOL DISRICT 10                          Apache                             04001                   129517  03063016
03500101600000WINDOW ROCK CONSOLIDATED SCHOOL DISTRICT 8                      Apache                             04001                   193217  03063016
03500140100000RED MESA UNIFIED SCHOOL DISTRICT 27                             Apache                             04001                    63717  03063016
03500140200000VERNON ELEMENTARY SCHOOL DISTRICT 9                             Apache                             04001                    14617  01063016
03500200100000APACHE SCHOOL DISTRICT 42                                       Cochise                            04003                     1017  01063016
03500200200000ASH CREEK SCHOOL DISTRICT 53                                    Cochise                            04003                     4410  01063016
03500200500000BISBEE UNIFIED SCHOOL DISTRICT 2                                Cochise                            04003                    61717  03063016
03500200600000BOWIE SCHOOL DISTRICT 14                                        Cochise                            04003                     4817  03063016
03500200700000SIERRA VISTA UNIFIED SCHOOL DISTRICT 68                         Cochise                            04003                   569417  03063016
03500200800000COCHISE SCHOOL DISTRICT 26                                      Cochise                            04003                     8517  01063016
03500200900000DOUBLE ADOBE SCHOOL DISTRICT 45                                 Cochise                            04003                     5617  01063016
03500201000000DOUGLAS SCHOOL DISTRICT 27                                      Cochise                            04003                   377617  03063016
03500201200000ELFRIDA SCHOOL DISTRICT 12                                      Cochise                            04003                    11117  01063016
03500201400000MCNEAL SCHOOL DISTRICT 55                                       Cochise                            04003                     7317  01063016
03500201500000NACO SCHOOL DISTRICT 23                                         Cochise                            04003                    42217  01063016
03500201600000PALOMINAS SCHOOL DISTRICT 49                                    Cochise                            04003                   134017  01063016
03500201700000PEARCE SCHOOL DISTRICT 22                                       Cochise                            04003                    10517  01063016
03500201800000VALLEY UNION HIGH SCHOOL DISTRICT 22                            Cochise                            04003                     9517  02063016
03500201900000POMERENE SCHOOL DISTRICT 64                                     Cochise                            04003                    14517  01063016
03500202300000ST DAVID SCHOOL DISTRICT 21                                     Cochise                            04003                    39117  03063016
03500202400000SAN SIMON SCHOOL DISTRICT 18                                    Cochise                            04003                    11317  03063016
03500202500000TOMBSTONE SCHOOL DISTRICT 1                                     Cochise                            04003                    78717  03063016
03500202700000WILLCOX SCHOOL DISTRICT 13                                      Cochise                            04003                   114617  03063016
03500210100000COCHISE TECHNOLOGY DISTRICT                                     Cochise                            04003                     1317  05    16
03500230100000BENSON UNIFIED SCHOOL DISTRICT                                  Cochise                            04003                   126317  03063016
03500270100000COCHISE COUNTY COMMUNITY COLLEGE DISTRICT                       Cochise                            04003                   426506  04063016
03500300100000FLAGSTAFF SCHOOL DISTRICT 1                                     Coconino                           04005                   978917  03063016
03500300200000FREDONIA-MOCCASIN BI-COUNTY SCHOOL DISTRICT 6                   Coconino                           04005                    31010  03063016
03500300300000GRAND CANYON SCHOOL DISTRICT 4                                  Coconino                           04005                    29517  03063016
03500300400000MAINE CONSOLIDATED SCHOOL DISTRICT 10                           Coconino                           04005                    14517  01063016
03500300500000TUBA CITY UNIFIED SCHOOL DISTRICT 15                            Coconino                           04005                   160017  03063016
03500300600000WILLIAMS SCHOOL DISTRICT 2                                      Coconino                           04005                    59117  03063016
03500310100000COCONINO ASSOCIATION FOR VOCATION INDUSTRY & TECHNOLOGY(CAVIAT) Coconino                           04005                   116005  05    16
03500330100000COCONINO COMMUNITY COLLEGE DISTRICT                             Coconino                           04005                   344606  04063016
03500350100000CHEVELON BUTTE SCHOOL DISTRICT 5                                Coconino                           04005                      010  06063016
03500380100000PAGE SCHOOL DISTRICT 8                                          Coconino                           04005                   267517  03063016
03500400100000GLOBE SCHOOL DISTRICT 1                                         Gila                               04007                   172117  03063016
03500400200000HAYDEN-WINKELMAN SCHOOL DISTRICT 41                             Gila                               04007                    27917  03063016
03500400300000MIAMI UNIFIED SCHOOL DISTRICT 40                                Gila                               04007                   112917  03063016
03500400400000TONTO SCHOOL DISTRICT 33                                        Gila                               04007                     6717  01063016
03500400500000PAYSON UNIFIED SCHOOL DISTRICT 10                               Gila                               04007                   237317  03063016
03500400600000PINE-STRAWBERRY SCHOOL DISTRICT 12                              Gila                               04007                    15617  01063016
03500400700000SAN CARLOS UNIFIED SCHOOL DISTRICT 20                           Gila                               04007                   156917  03063016
03500401000000YOUNG SCHOOL DISTRICT 5                                         Gila                               04007                     6010  03063016
03500410100000GILA INSITUTE FOR TECHNOLOGY                                    Gila                               04007                   140705  05    16
03500430100000COBRE VALLEY INSTITUTE OF TECHNOLOGY DISTRICT                   Gila                               04007                    52005  05    16
03500500100000BONITA SCHOOL DISTRICT 16                                       Graham                             04009                     7417  01063016
03500500200000GRAHAM COUNTY COMMUNITY COLLEGE DIST (EASTERN ARIZONA COLLEGE)  Graham                             04009                   525506  04063016
03500500300000FT THOMAS SCHOOL DISTRICT 7                                     Graham                             04009                    59717  03063016
03500500400000KLONDYKE SCHOOL DISTRICT 9                                      Graham                             04009                      010  06063016
03500500500000PIMA UNIFIED SCHOOL DISTRICT 6                                  Graham                             04009                    82517  03063016
03500500600000SAFFORD SCHOOL DISTRICT 1                                       Graham                             04009                   302717  03063016
03500500700000SOLOMONVILLE SCHOOL DISTRICT 5                                  Graham                             04009                    27717  01063016
03500500800000THATCHER SCHOOL DISTRICT 4                                      Graham                             04009                   173717  03063016
03500600100000BLUE SCHOOL DISTRICT 22                                         Greenlee                           04011                      010  06063016
03500600300000DUNCAN UNIFIED SCHOOL DISTRICT 2                                Greenlee                           04011                    31117  03063016
03500600400000MORENI SCHOOL DISTRICT 18                                       Greenlee                           04011                   149817  03063016
03500690100000EAGLE ELEMENTARY DISTRICT 45                                    Greenlee                           04011                      010  06063016
03500700100000AGUILA SCHOOL DISTRICT 63                                       Maricopa                           04013                    20717  01063016
03500700200000ALHAMBRA SCHOOL DISTRICT 68                                     Maricopa                           04013                  1352017  01063016
03500700300000ARLINGTON SCHOOL DISTRICT 47                                    Maricopa                           04013                    23017  01063016
03500700400000AVONDALE SCHOOL DISTRICT 44                                     Maricopa                           04013                   560017  01063016
03500700500000BALSZ SCHOOL DISTRICT 31                                        Maricopa                           04013                   249617  01063016
03500700600000BUCKEYE SCHOOL DISTRICT 33                                      Maricopa                           04013                   504217  01063016
03500700700000BUCKEYE UNION HIGH SCHOOL DISTRICT 201                          Maricopa                           04013                   396417  02063016
03500700800000CARTWRIGHT SCHOOL DISTRICT 83                                   Maricopa                           04013                  1868417  01063016
03500700900000CAVE CREEK UNIFIED SCHOOL DISTRICT 93                           Maricopa                           04013                   539217  03063016
03500701000000CHANDLER UNIFIED SCHOOL DISTRICT 80                             Maricopa                           04013                  4284317  03063016
03500701100000CREIGHTON ELEMENTARY SCHOOL DISTRICT 14                         Maricopa                           04013                   643017  01063016
03500701300000DYSART SCHOOL DISTRICT 89                                       Maricopa                           04013                  2488517  03063016
03500701400000FOWLER SCHOOL DISTRICT 45                                       Maricopa                           04013                   380017  01063016
03500701500000GILA BEND UNIFIED SCHOOL DISTRICT 24                            Maricopa                           04013                    40917  03063016
03500701600000GILBERT SCHOOL DISTRICT 41                                      Maricopa                           04013                  3602117  03063016
03500701700000GLENDALE ELEMENTARY SCHOOL DISTRICT 40                          Maricopa                           04013                  1363517  01063016
03500701800000GLENDALE UNION HIGH SCHOOL DISTRICT 205                         Maricopa                           04013                  1549717  02063016
03500701900000HIGLEY UNIFIED SCHOOL DISTRICT                                  Maricopa                           04013                  1188317  03063016
03500702000000ISAAC SCHOOL DISTRICT 5                                         Maricopa                           04013                   739217  01063016
03500702100000KYRENE SCHOOL DISTRICT 28                                       Maricopa                           04013                  1734717  01063016
03500702200000LAVEEN SCHOOL DISTRICT 59                                       Maricopa                           04013                   664817  01063016
03500702300000LIBERTY SCHOOL DISTRICT 25                                      Maricopa                           04013                   340817  01063016
03500702400000LITCHFIELD ELEMENTARY SCHOOL DISTRICT 79                        Maricopa                           04013                  1118617  01063016
03500702500000LITTLETON ELEMENTARY SCHOOL DISTRICT 65                         Maricopa                           04013                   547317  01063016
03500702600000MADISON ELEMENTARY SCHOOL DISTRICT 38                           Maricopa                           04013                   567217  01063016
03500702700000MESA UNIFIED SCHOOL DISTRICT                                    Maricopa                           04013                  6436717  03063016
03500702800000MOBILE ELEMENTARY SCHOOL DISTRICT 86                            Maricopa                           04013                     1617  01063016
03500702900000MORRISTOWN SCHOOL DISTRICT 75                                   Maricopa                           04013                    14417  01063016
03500703000000MURPHY SCHOOL DISTRICT 21                                       Maricopa                           04013                   178717  01063016
03500703100000NADABURG SCHOOL DISTRICT 81                                     Maricopa                           04013                   123617  01063016
03500703200000OSBORN SCHOOL DISTRICT 8                                        Maricopa                           04013                   291217  01063016
03500703300000PALO VERDE SCHOOL DISTRICT 49                                   Maricopa                           04013                    47117  01063016
03500703400000PENDERGAST SCHOOL DISTRICT 92                                   Maricopa                           04013                  1002817  01063016
03500703500000PEORIA UNIFIED SCHOOL DISTRICT 11                               Maricopa                           04013                  3641817  03063016
03500703600000PHOENIX ELEMENTARY SCHOOL DISTRICT 1                            Maricopa                           04013                   693317  01063016
03500703700000PHOENIX UNION HIGH SCHOOL DISTRICT 210                          Maricopa                           04013                  2710917  02063016
03500703800000QUEEN CREEK SCHOOL DISTRICT 95                                  Maricopa                           04013                   588517  03063016
03500703900000RIVERSIDE SCHOOL DISTRICT 2                                     Maricopa                           04013                    91517  01063016
03500704000000ROOSEVELT SCHOOL DISTRICT 66                                    Maricopa                           04013                   938217  01063016
03500704100000SCOTTSDALE UNIFIED SCHOOL DISTRICT 48                           Maricopa                           04013                  2365917  03063016
03500704200000SENTINEL SCHOOL DISTRICT 71                                     Maricopa                           04013                     3917  01063016
03500704300000PARADISE VALLEY SCHOOL DISTRICT 69 AND 217                      Maricopa                           04013                  3231617  03063016
03500704400000TEMPE ELEMENTARY SCHOOL DISTRICT 3                              Maricopa                           04013                  1159117  01063016
03500704500000TEMPE UNION HIGH SCHOOL DISTRICT 213                            Maricopa                           04013                  1404017  02063016
03500704600000PALOMA SCHOOL DISTRICT 94                                       Maricopa                           04013                    11617  01063016
03500704700000TOLLESON ELEMENTARY SCHOOL DISTRICT 17                          Maricopa                           04013                   298917  01063016
03500704800000TOLLESON UNION HIGH SCHOOL DISTRICT 214                         Maricopa                           04013                  1141917  02063016
03500704900000UNION SCHOOL DISTRICT 62                                        Maricopa                           04013                   202517  01063016
03500705000000WASHINGTON SCHOOL DISTRICT 6                                    Maricopa                           04013                  2352917  01063016
03500705100000WICKENBURG UNIFIED SCHOOL DISTRICT 9                            Maricopa                           04013                   112417  03063016
03500705200000WILSON SCHOOL DISTRICT 7                                        Maricopa                           04013                   117517  01063016
03500710100000WESTERN MARICOPA EDUCATION CENTER                               Maricopa                           04013                   752605  05    16
03500720200000EAST VALLEY INSTITUTE OF TECHNOLOGY DISTRICT                    Maricopa                           04013                  1402405  05063016
03500750100000DEER VALLEY UNIFIED SCHOOL DISTRICT                             Maricopa                           04013                  3415317  03063016
03500750200000AGUA FRIA UNION HIGH SCHOOL DISTRICT 216                        Maricopa                           04013                   762917  02063016
03500770100000MARICOPA COUNTY COMMUNITY COLLEGE DISTRICT                      Maricopa                           04013                 12277406  04063016
03500770200000SADDLE MOUNTAIN UNIFIED SCHOOL DISTRICT                         Maricopa                           04013                   150617  03063016
03500790100000FOUNTAIN HILLS SCHOOL DISTRICT 98                               Maricopa                           04013                   156917  03063016
03500800200000BULLHEAD CITY SCHOOL DISTRICT 15                                Mohave                             04015                   286517  01063016
03500800400000HACKBERRY SCHOOL DISTRICT 3                                     Mohave                             04015                     3510  01063016
03500800500000KINGMAN UNIFIED SCHOOL DISTRICT 20                              Mohave                             04015                   660417  03063016
03500800600000LITTLEFIELD SCHOOL DISTRICT 9                                   Mohave                             04015                    40917  03063016
03500801000000MOHAVE VALLEY SCHOOL DISTRICT 16                                Mohave                             04015                   114417  01063016
03500801100000OWENS WHITNEY SCHOOL DISTRICT 6                                 Mohave                             04015                     2417  01063016
03500801200000PEACH SPRINGS UNIFIED SCHOOL DISTRICT                           Mohave                             04015                    23817  01063016
03500801300000COLORADO CITY UNIFIED SCHOOL DISTRICT 14                        Mohave                             04015                    59617  03063016
03500801400000TOPOCK SCHOOL DISTRICT 12                                       Mohave                             04015                    10017  01063016
03500801500000VALENTINE SCHOOL DISTRICT 22                                    Mohave                             04015                     8017  01063016
03500801600000YUCCA SCHOOL DISTRICT 13                                        Mohave                             04015                     3717  01063016
03500810100000WESTERN ARIZONA VOCATIONAL DISTRICT #50                         Mohave                             04015                      610  05    16
03500820100000COLORADO R UNION HIGH SCHOOL DISTRICT 2                         Mohave                             04015                   204117  02063016
03500870100000LAKE HAVASU UNIFIED SCHOOL DISTRICT 1                           Mohave                             04015                   545417  03063016
03500880100000MOHAVE COMMUNITY COLLEGE                                        Mohave                             04015                   580006  04063016
03500900300000HOLBROOK UNIFIED SCHOOL DISTRICT 3                              Navajo                             04017                   200210  03063016
03500900400000JOSEPH CITY SCHOOL DISTRICT 2                                   Navajo                             04017                    39517  03063016
03500900500000KAYENTA UNIFIED SCHOOL DISTRICT 27                              Navajo                             04017                   175917  03063016
03500900600000CEDAR UNIFIED SCHOOL DISTRICT 25                                Navajo                             04017                    29210  03063016
03500900700000BLUE RIDGE UNIFIED SCHOOL DISTRICT 32                           Navajo                             04017                   208117  03063016
03500901300000SHOW LOW UNIFIED SCHOOL DISTRICT 10                             Navajo                             04017                   240417  03063016
03500901600000SNOWFLAKE UNIFIED SCHOOL DISTRICT 5                             Navajo                             04017                   242917  03063016
03500901800000WHITERIVER UNIFIED SCHOOL DISTRICT 20                           Navajo                             04017                   223717  03063016
03500901900000WINSLOW UNIFIED SCHOOL DISTRICT 1                               Navajo                             04017                   121710  03063016
03500910100000NORTHERN ARIZONA VOCATIONAL INSTITUTE OF TECHNOLOGY             Navajo                             04017                   501605  05    16
03500910200000NORTHEAST ARIZONA TECHNOLOGICAL INSTITUTE OF VOCATIONAL EDUCATIONavajo                             04017                   157005  05    16
03500940100000PINON SCHOOL UNIFIED SCHOOL DISTRICT 4                          Navajo                             04017                   121817  03063016
03500940200000HEBER OVERGAARD SCHOOL DISTRICT                                 Navajo                             04017                    44317  03063016
03500960200000NORTHLAND PIONEER COLLEGE                                       Navajo                             04017                   425006  04063016
03501000100000AJO SCHOOL DISTRICT 15 AND 103                                  Pima                               04019                    41917  03063016
03501000200000AMPHITHEATER SCHOOL DISTRICT 10                                 Pima                               04019                  1373717  03063016
03501000300000CATALINA FOOTHILLS SCHOOL DISTRICT 16                           Pima                               04019                   491917  03063016
03501000400000CONTINENTAL SCHOOL DISTRICT 39                                  Pima                               04019                    77517  01063016
03501000500000EMPIRE SCHOOL DISTRICT 37                                       Pima                               04019                      010  06063016
03501000600000FLOWING WELLS SCHOOL DISTRICT 8                                 Pima                               04019                   525317  03063016
03501000700000INDIAN OASIS-BABOQUIVARA UNIFIED SCHOOL DISTRICT 40             Pima                               04019                   101017  03063016
03501001000000MARANA UNIFIED SCHOOL DISTRICT 6                                Pima                               04019                  1225217  03063016
03501001100000REDINGTON SCHOOL DISTRICT 44                                    Pima                               04019                      010  06063016
03501001200000SAHUARITA SCHOOL DISTRICT 30                                    Pima                               04019                   589917  03063016
03501001300000SAN FERNANDO SCHOOL DISTRICT 35                                 Pima                               04019                     1717  01063016
03501001500000SUNNYSIDE SCHOOL DISTRICT 12                                    Pima                               04019                  1596217  03063016
03501001600000TANQUE VERDE UNIFIED SCHOOL DISTRICT 13                         Pima                               04019                   208417  03063016
03501001700000ALTAR VALLEY SCHOOL DISTRICT 51                                 Pima                               04019                    89317  01063016
03501001800000TUCSON UNIFIED SCHOOL DISTRICT 1                                Pima                               04019                  4783917  03063016
03501001900000VAIL UNIFIED SCHOOL DISTRICT                                    Pima                               04019                  1225417  03063016
03501010100000PIMA COUNTY JOINT TECHNOLOGICAL EDUCATION DISTRICT NUMBER 11    Pima                               04019                    13810  05    16
